:020000040000FA
:040000003DEF00F0E0
:020004000000FA
:0A000600010EEA6EE96A190EEE6EB3
:10001000040EEE6E020EEE6E0F0EEE6E100EEE6E13
:10002000650EEE6E210EEE6E030EEF6E080E006E84
:100030001200EE500160016E000626EF00F0010E86
:10004000EA6EE96A080E006EEF50016E000E006263
:1000500019EF00F01200EE500264026E000638EF55
:1000600000F0010EEA6EE96A080E006EEF50026EB3
:10007000000E00622BEF00F0120003EC00F01FEC0A
:0A00800000F031EC00F043EF00F057
:00000001FF
