:020000040000FA
:0400000003EF00F01A
:020004000000FA
:0A000600D38CD38AD3989290929283
:10001000929492969490949294949496050E006E75
:100020000050896E8B6E23EC00F00050FF0A896E41
:100030008B6E23EC00F010EF00F0750E016E1200D5
:10004000750E026E1200FF0E016E026E0A0E036E36
:100050002AEF00F00106000E01622AEF00F002060E
:100060001DEC00F0000E02622AEF00F003061DEC0A
:1000700000F020EC00F0000E03622AEF00F0120006
:020000040030CA
:0100010009F5
:010002001FDE
:010003001EDE
:010005008872
:010006008178
:010008000FE8
:01000900C036
:01000A000FE6
:01000B00E014
:01000C000FE4
:01000D0040B2
:00000001FF
