:020000040000FA
:0400000049EF00F0D4
:020004000000FA
:0A000600010EEA6EE96A006AEE508E
:1000100003E0002A07EF00F01200020EE26E010E6C
:10002000E16E006BE65003E0002B12EF00F01200CF
:10003000EE50E76EE77CE778E774E67000072BEF99
:1000400000F0010EEA6EE96A020EE26E010EE16E48
:1000500000500201006F000E006318EF00F0000E68
:10006000E76E1200E551EE6F000742EF00F0020E5E
:10007000E26E0151E16E030EEA6E010EE96E00516F
:100080000301006F000E006332EF00F0000EEF6E10
:1000900012000101010EEA6EE96A380EEE6E310EB1
:1000A000EE6E330EEE6E6E0EEE6E760EEE6E330E5E
:1000B000EE6E6E0EEE6E750EEE6E330EEE6E000E82
:1000C000EE6E03EC00F021EC00F00DEC00F037ECEC
:0600D00000F069EF00F0F2
:00000001FF
